{
  "_format": "hh-sol-artifact-1",
  "contractName": "Factory",
  "sourceName": "contracts/factory.sol",
  "abi": [
    {
      "inputs": [
        {
          "internalType": "address",
          "name": "_USDC",
          "type": "address"
        },
        {
          "internalType": "address",
          "name": "_feeRecipient",
          "type": "address"
        },
        {
          "internalType": "uint256",
          "name": "_fee",
          "type": "uint256"
        }
      ],
      "stateMutability": "nonpayable",
      "type": "constructor"
    },
    {
      "anonymous": false,
      "inputs": [
        {
          "indexed": true,
          "internalType": "address",
          "name": "previousOwner",
          "type": "address"
        },
        {
          "indexed": true,
          "internalType": "address",
          "name": "newOwner",
          "type": "address"
        }
      ],
      "name": "OwnershipTransferred",
      "type": "event"
    },
    {
      "inputs": [],
      "name": "createVault",
      "outputs": [],
      "stateMutability": "nonpayable",
      "type": "function"
    },
    {
      "inputs": [],
      "name": "fee",
      "outputs": [
        {
          "internalType": "uint256",
          "name": "",
          "type": "uint256"
        }
      ],
      "stateMutability": "view",
      "type": "function"
    },
    {
      "inputs": [],
      "name": "feeRecipient",
      "outputs": [
        {
          "internalType": "address",
          "name": "",
          "type": "address"
        }
      ],
      "stateMutability": "view",
      "type": "function"
    },
    {
      "inputs": [],
      "name": "owner",
      "outputs": [
        {
          "internalType": "address",
          "name": "",
          "type": "address"
        }
      ],
      "stateMutability": "view",
      "type": "function"
    },
    {
      "inputs": [],
      "name": "renounceOwnership",
      "outputs": [],
      "stateMutability": "nonpayable",
      "type": "function"
    },
    {
      "inputs": [
        {
          "internalType": "address",
          "name": "newOwner",
          "type": "address"
        }
      ],
      "name": "transferOwnership",
      "outputs": [],
      "stateMutability": "nonpayable",
      "type": "function"
    },
    {
      "inputs": [],
      "name": "usdcAddress",
      "outputs": [
        {
          "internalType": "address",
          "name": "",
          "type": "address"
        }
      ],
      "stateMutability": "view",
      "type": "function"
    },
    {
      "inputs": [
        {
          "internalType": "address",
          "name": "",
          "type": "address"
        }
      ],
      "name": "userContracts",
      "outputs": [
        {
          "internalType": "address",
          "name": "",
          "type": "address"
        }
      ],
      "stateMutability": "view",
      "type": "function"
    }
  ],
  "bytecode": "0x608060405234801561001057600080fd5b50604051610ec1380380610ec183398101604081905261002f916100dc565b61003833610070565b600380546001600160a01b039485166001600160a01b0319918216179091556001805493909416921691909117909155600255610118565b600080546001600160a01b038381166001600160a01b0319831681178455604051919092169283917f8be0079c531659141344cd1fd0a4f28419497f9722a3daafe3b4186f6b6457e09190a35050565b80516001600160a01b03811681146100d757600080fd5b919050565b6000806000606084860312156100f157600080fd5b6100fa846100c0565b9250610108602085016100c0565b9150604084015190509250925092565b610d9a806101276000396000f3fe608060405234801561001057600080fd5b50600436106100885760003560e01c8063715018a61161005b578063715018a6146101035780638da5cb5b1461010b578063ddca3f431461011c578063f2fde38b1461013357600080fd5b806302d454571461008d5780630687b785146100bd57806346904840146100e65780635d12928b146100f9575b600080fd5b6003546100a0906001600160a01b031681565b6040516001600160a01b0390911681526020015b60405180910390f35b6100a06100cb3660046103ef565b6004602052600090815260409020546001600160a01b031681565b6001546100a0906001600160a01b031681565b610101610146565b005b6101016102ab565b6000546001600160a01b03166100a0565b61012560025481565b6040519081526020016100b4565b6101016101413660046103ef565b6102bf565b336000908152600460205260409020546001600160a01b0316156101bd5760405162461bcd60e51b8152602060048201526024808201527f596f75206861766520616c7265616479206465706c6f796564206120636f6e746044820152631c9858dd60e21b60648201526084015b60405180910390fd5b6003546001546002546040516000936001600160a01b03908116931691906101e4906103e2565b6001600160a01b0393841681529290911660208301526040820152606001604051809103906000f08015801561021e573d6000803e3d6000fd5b5060405163f2fde38b60e01b81523360048201529091506001600160a01b0382169063f2fde38b90602401600060405180830381600087803b15801561026357600080fd5b505af1158015610277573d6000803e3d6000fd5b505033600090815260046020526040902080546001600160a01b0319166001600160a01b0394909416939093179092555050565b6102b3610338565b6102bd6000610392565b565b6102c7610338565b6001600160a01b03811661032c5760405162461bcd60e51b815260206004820152602660248201527f4f776e61626c653a206e6577206f776e657220697320746865207a65726f206160448201526564647265737360d01b60648201526084016101b4565b61033581610392565b50565b6000546001600160a01b031633146102bd5760405162461bcd60e51b815260206004820181905260248201527f4f776e61626c653a2063616c6c6572206973206e6f7420746865206f776e657260448201526064016101b4565b600080546001600160a01b038381166001600160a01b0319831681178455604051919092169283917f8be0079c531659141344cd1fd0a4f28419497f9722a3daafe3b4186f6b6457e09190a35050565b6109458061042083390190565b60006020828403121561040157600080fd5b81356001600160a01b038116811461041857600080fd5b939250505056fe608060405234801561001057600080fd5b5060405161094538038061094583398101604081905261002f916100dc565b61003833610070565b600180546001600160a01b039485166001600160a01b0319918216179091556002805493909416921691909117909155600355610118565b600080546001600160a01b038381166001600160a01b0319831681178455604051919092169283917f8be0079c531659141344cd1fd0a4f28419497f9722a3daafe3b4186f6b6457e09190a35050565b80516001600160a01b03811681146100d757600080fd5b919050565b6000806000606084860312156100f157600080fd5b6100fa846100c0565b9250610108602085016100c0565b9150604084015190509250925092565b61081e806101276000396000f3fe608060405234801561001057600080fd5b50600436106100935760003560e01c80638da5cb5b116100665780638da5cb5b146100f8578063b6b55f2514610109578063ddca3f431461011c578063f18d20be14610133578063f2fde38b1461013b57600080fd5b80632e1a7d4d1461009857806346904840146100ad578063715018a6146100dd57806389a30271146100e5575b600080fd5b6100ab6100a63660046106f6565b61014e565b005b6002546100c0906001600160a01b031681565b6040516001600160a01b0390911681526020015b60405180910390f35b6100ab610362565b6001546100c0906001600160a01b031681565b6000546001600160a01b03166100c0565b6100ab6101173660046106f6565b610376565b61012560035481565b6040519081526020016100d4565b6100ab6104cd565b6100ab61014936600461070f565b6105d6565b61015661064c565b6001546040516370a0823160e01b815230600482015282916001600160a01b0316906370a082319060240160206040518083038186803b15801561019957600080fd5b505afa1580156101ad573d6000803e3d6000fd5b505050506040513d601f19601f820116820180604052508101906101d1919061073f565b101561021b5760405162461bcd60e51b8152602060048201526014602482015273496e73756666696369656e742062616c616e636560601b60448201526064015b60405180910390fd5b600060646003548361022d919061076e565b610237919061078d565b6001549091506001600160a01b031663a9059cbb3361025684866107af565b6040516001600160e01b031960e085901b1681526001600160a01b0390921660048301526024820152604401602060405180830381600087803b15801561029c57600080fd5b505af11580156102b0573d6000803e3d6000fd5b505050506040513d601f19601f820116820180604052508101906102d491906107c6565b5060015460025460405163a9059cbb60e01b81526001600160a01b0391821660048201526024810184905291169063a9059cbb90604401602060405180830381600087803b15801561032557600080fd5b505af1158015610339573d6000803e3d6000fd5b505050506040513d601f19601f8201168201806040525081019061035d91906107c6565b505050565b61036a61064c565b61037460006106a6565b565b6001546040516370a0823160e01b815233600482015282916001600160a01b0316906370a082319060240160206040518083038186803b1580156103b957600080fd5b505afa1580156103cd573d6000803e3d6000fd5b505050506040513d601f19601f820116820180604052508101906103f1919061073f565b101561043f5760405162461bcd60e51b815260206004820152601960248201527f496e73756666696369656e7420555344432062616c616e6365000000000000006044820152606401610212565b6001546040516323b872dd60e01b8152336004820152306024820152604481018390526001600160a01b03909116906323b872dd90606401602060405180830381600087803b15801561049157600080fd5b505af11580156104a5573d6000803e3d6000fd5b505050506040513d601f19601f820116820180604052508101906104c991906107c6565b5050565b6001546002546040516370a0823160e01b81523060048201526001600160a01b039283169263a9059cbb92169083906370a082319060240160206040518083038186803b15801561051d57600080fd5b505afa158015610531573d6000803e3d6000fd5b505050506040513d601f19601f82011682018060405250810190610555919061073f565b6040516001600160e01b031960e085901b1681526001600160a01b0390921660048301526024820152604401602060405180830381600087803b15801561059b57600080fd5b505af11580156105af573d6000803e3d6000fd5b505050506040513d601f19601f820116820180604052508101906105d391906107c6565b50565b6105de61064c565b6001600160a01b0381166106435760405162461bcd60e51b815260206004820152602660248201527f4f776e61626c653a206e6577206f776e657220697320746865207a65726f206160448201526564647265737360d01b6064820152608401610212565b6105d3816106a6565b6000546001600160a01b031633146103745760405162461bcd60e51b815260206004820181905260248201527f4f776e61626c653a2063616c6c6572206973206e6f7420746865206f776e65726044820152606401610212565b600080546001600160a01b038381166001600160a01b0319831681178455604051919092169283917f8be0079c531659141344cd1fd0a4f28419497f9722a3daafe3b4186f6b6457e09190a35050565b60006020828403121561070857600080fd5b5035919050565b60006020828403121561072157600080fd5b81356001600160a01b038116811461073857600080fd5b9392505050565b60006020828403121561075157600080fd5b5051919050565b634e487b7160e01b600052601160045260246000fd5b600081600019048311821515161561078857610788610758565b500290565b6000826107aa57634e487b7160e01b600052601260045260246000fd5b500490565b6000828210156107c1576107c1610758565b500390565b6000602082840312156107d857600080fd5b8151801515811461073857600080fdfea264697066735822122019a81df69ab6e6ccd50cc891ee90d9df898fe2b7e2afab6dbe052445e1ccf43164736f6c63430008090033a2646970667358221220f95c551db4e5120c58b4cec69e61643354d645d61e9effd30143ebb34ca714fc64736f6c63430008090033",
  "linkReferences": {},
  "deployedLinkReferences": {}
}