{
  "_format": "hh-sol-artifact-1",
  "contractName": "Factory",
  "sourceName": "contracts/Factory.sol",
  "abi": [
    {
      "inputs": [
        {
          "internalType": "address",
          "name": "_USDC",
          "type": "address"
        },
        {
          "internalType": "address",
          "name": "_feeRecipient",
          "type": "address"
        },
        {
          "internalType": "uint256",
          "name": "_fee",
          "type": "uint256"
        },
        {
          "internalType": "address",
          "name": "_withdrawAdmin",
          "type": "address"
        },
        {
          "internalType": "address",
          "name": "_fundCollector",
          "type": "address"
        }
      ],
      "stateMutability": "nonpayable",
      "type": "constructor"
    },
    {
      "anonymous": false,
      "inputs": [
        {
          "indexed": true,
          "internalType": "address",
          "name": "previousOwner",
          "type": "address"
        },
        {
          "indexed": true,
          "internalType": "address",
          "name": "newOwner",
          "type": "address"
        }
      ],
      "name": "OwnershipTransferred",
      "type": "event"
    },
    {
      "inputs": [],
      "name": "createVault",
      "outputs": [],
      "stateMutability": "nonpayable",
      "type": "function"
    },
    {
      "inputs": [],
      "name": "getFee",
      "outputs": [
        {
          "internalType": "uint256",
          "name": "",
          "type": "uint256"
        }
      ],
      "stateMutability": "view",
      "type": "function"
    },
    {
      "inputs": [],
      "name": "getFeeRecipient",
      "outputs": [
        {
          "internalType": "address",
          "name": "",
          "type": "address"
        }
      ],
      "stateMutability": "view",
      "type": "function"
    },
    {
      "inputs": [],
      "name": "getFundCollector",
      "outputs": [
        {
          "internalType": "address",
          "name": "",
          "type": "address"
        }
      ],
      "stateMutability": "view",
      "type": "function"
    },
    {
      "inputs": [],
      "name": "getWithdrawAdminAddr",
      "outputs": [
        {
          "internalType": "address",
          "name": "",
          "type": "address"
        }
      ],
      "stateMutability": "view",
      "type": "function"
    },
    {
      "inputs": [],
      "name": "owner",
      "outputs": [
        {
          "internalType": "address",
          "name": "",
          "type": "address"
        }
      ],
      "stateMutability": "view",
      "type": "function"
    },
    {
      "inputs": [],
      "name": "renounceOwnership",
      "outputs": [],
      "stateMutability": "nonpayable",
      "type": "function"
    },
    {
      "inputs": [
        {
          "internalType": "uint256",
          "name": "newFee",
          "type": "uint256"
        }
      ],
      "name": "setFee",
      "outputs": [],
      "stateMutability": "nonpayable",
      "type": "function"
    },
    {
      "inputs": [
        {
          "internalType": "address",
          "name": "newFeeRecipient",
          "type": "address"
        }
      ],
      "name": "setFeeRecipient",
      "outputs": [],
      "stateMutability": "nonpayable",
      "type": "function"
    },
    {
      "inputs": [
        {
          "internalType": "address",
          "name": "newFundCollector",
          "type": "address"
        }
      ],
      "name": "setFundCollector",
      "outputs": [],
      "stateMutability": "nonpayable",
      "type": "function"
    },
    {
      "inputs": [
        {
          "internalType": "address",
          "name": "newWithdrawAdmin",
          "type": "address"
        }
      ],
      "name": "setWithdrawAdmin",
      "outputs": [],
      "stateMutability": "nonpayable",
      "type": "function"
    },
    {
      "inputs": [
        {
          "internalType": "address",
          "name": "newOwner",
          "type": "address"
        }
      ],
      "name": "transferOwnership",
      "outputs": [],
      "stateMutability": "nonpayable",
      "type": "function"
    },
    {
      "inputs": [
        {
          "internalType": "address",
          "name": "",
          "type": "address"
        }
      ],
      "name": "userContracts",
      "outputs": [
        {
          "internalType": "address",
          "name": "",
          "type": "address"
        }
      ],
      "stateMutability": "view",
      "type": "function"
    }
  ],
  "bytecode": "0x608060405234801561001057600080fd5b5060405161127c38038061127c83398101604081905261002f916100fa565b6100383361008e565b600480546001600160a01b03199081166001600160a01b03978816179091556002805482169587169590951790945560038054851692861692909217909155600580549093169316929092179055600155610158565b600080546001600160a01b038381166001600160a01b0319831681178455604051919092169283917f8be0079c531659141344cd1fd0a4f28419497f9722a3daafe3b4186f6b6457e09190a35050565b80516001600160a01b03811681146100f557600080fd5b919050565b600080600080600060a0868803121561011257600080fd5b61011b866100de565b9450610129602087016100de565b93506040860151925061013e606087016100de565b915061014c608087016100de565b90509295509295909350565b611115806101676000396000f3fe608060405234801561001057600080fd5b50600436106100cf5760003560e01c806365486a3c1161008c5780638da5cb5b116100665780638da5cb5b14610198578063ced72f87146101a9578063e74b981b146101ba578063f2fde38b146101cd57600080fd5b806365486a3c1461016a57806369fe0e2d1461017d578063715018a61461019057600080fd5b80630687b785146100d4578063337807861461011a57806347b607081461012b5780634ccb20c0146101405780635bd05a23146101515780635d12928b14610162575b600080fd5b6100fd6100e2366004610504565b6006602052600090815260409020546001600160a01b031681565b6040516001600160a01b0390911681526020015b60405180910390f35b6003546001600160a01b03166100fd565b61013e610139366004610504565b6101e0565b005b6002546001600160a01b03166100fd565b6005546001600160a01b03166100fd565b61013e61020a565b61013e610178366004610504565b61035f565b61013e61018b366004610534565b610389565b61013e610396565b6000546001600160a01b03166100fd565b600154604051908152602001610111565b61013e6101c8366004610504565b6103aa565b61013e6101db366004610504565b6103d4565b6101e861044d565b600580546001600160a01b0319166001600160a01b0392909216919091179055565b336000908152600660205260409020546001600160a01b0316156102815760405162461bcd60e51b8152602060048201526024808201527f596f75206861766520616c7265616479206465706c6f796564206120636f6e746044820152631c9858dd60e21b60648201526084015b60405180910390fd5b6004546040516000916001600160a01b031690309061029f906104f7565b6001600160a01b03928316815291166020820152604001604051809103906000f0801580156102d2573d6000803e3d6000fd5b5060405163f2fde38b60e01b81523360048201529091506001600160a01b0382169063f2fde38b90602401600060405180830381600087803b15801561031757600080fd5b505af115801561032b573d6000803e3d6000fd5b505033600090815260066020526040902080546001600160a01b0319166001600160a01b0394909416939093179092555050565b61036761044d565b600380546001600160a01b0319166001600160a01b0392909216919091179055565b61039161044d565b600155565b61039e61044d565b6103a860006104a7565b565b6103b261044d565b600280546001600160a01b0319166001600160a01b0392909216919091179055565b6103dc61044d565b6001600160a01b0381166104415760405162461bcd60e51b815260206004820152602660248201527f4f776e61626c653a206e6577206f776e657220697320746865207a65726f206160448201526564647265737360d01b6064820152608401610278565b61044a816104a7565b50565b6000546001600160a01b031633146103a85760405162461bcd60e51b815260206004820181905260248201527f4f776e61626c653a2063616c6c6572206973206e6f7420746865206f776e65726044820152606401610278565b600080546001600160a01b038381166001600160a01b0319831681178455604051919092169283917f8be0079c531659141344cd1fd0a4f28419497f9722a3daafe3b4186f6b6457e09190a35050565b610b928061054e83390190565b60006020828403121561051657600080fd5b81356001600160a01b038116811461052d57600080fd5b9392505050565b60006020828403121561054657600080fd5b503591905056fe608060405234801561001057600080fd5b50604051610b92380380610b9283398101604081905261002f916100d5565b61003833610069565b600180546001600160a01b039384166001600160a01b03199182161790915560028054929093169116179055610108565b600080546001600160a01b038381166001600160a01b0319831681178455604051919092169283917f8be0079c531659141344cd1fd0a4f28419497f9722a3daafe3b4186f6b6457e09190a35050565b80516001600160a01b03811681146100d057600080fd5b919050565b600080604083850312156100e857600080fd5b6100f1836100b9565b91506100ff602084016100b9565b90509250929050565b610a7b806101176000396000f3fe608060405234801561001057600080fd5b50600436106100885760003560e01c8063b6b55f251161005b578063b6b55f25146100ea578063c83dd231146100fd578063f18d20be14610110578063f2fde38b1461011857600080fd5b80632e1a7d4d1461008d578063715018a6146100a257806389a30271146100aa5780638da5cb5b146100d9575b600080fd5b6100a061009b36600461092d565b61012b565b005b6100a0610440565b6001546100bd906001600160a01b031681565b6040516001600160a01b03909116815260200160405180910390f35b6000546001600160a01b03166100bd565b6100a06100f836600461092d565b610454565b6002546100bd906001600160a01b031681565b6100a06105ab565b6100a061012636600461095b565b61080d565b610133610883565b6001546040516370a0823160e01b815230600482015282916001600160a01b0316906370a082319060240160206040518083038186803b15801561017657600080fd5b505afa15801561018a573d6000803e3d6000fd5b505050506040513d601f19601f820116820180604052508101906101ae919061097f565b10156101f85760405162461bcd60e51b8152602060048201526014602482015273496e73756666696369656e742062616c616e636560601b60448201526064015b60405180910390fd5b60006064600260009054906101000a90046001600160a01b03166001600160a01b031663ced72f876040518163ffffffff1660e01b815260040160206040518083038186803b15801561024a57600080fd5b505afa15801561025e573d6000803e3d6000fd5b505050506040513d601f19601f82011682018060405250810190610282919061097f565b61028c90846109ae565b61029691906109cd565b6001549091506001600160a01b031663a9059cbb336102b584866109ef565b6040516001600160e01b031960e085901b1681526001600160a01b0390921660048301526024820152604401602060405180830381600087803b1580156102fb57600080fd5b505af115801561030f573d6000803e3d6000fd5b505050506040513d601f19601f820116820180604052508101906103339190610a06565b50600154600254604080516301332c8360e61b815290516001600160a01b039384169363a9059cbb931691634ccb20c0916004808301926020929190829003018186803b15801561038357600080fd5b505afa158015610397573d6000803e3d6000fd5b505050506040513d601f19601f820116820180604052508101906103bb9190610a28565b6040516001600160e01b031960e084901b1681526001600160a01b03909116600482015260248101849052604401602060405180830381600087803b15801561040357600080fd5b505af1158015610417573d6000803e3d6000fd5b505050506040513d601f19601f8201168201806040525081019061043b9190610a06565b505050565b610448610883565b61045260006108dd565b565b6001546040516370a0823160e01b815233600482015282916001600160a01b0316906370a082319060240160206040518083038186803b15801561049757600080fd5b505afa1580156104ab573d6000803e3d6000fd5b505050506040513d601f19601f820116820180604052508101906104cf919061097f565b101561051d5760405162461bcd60e51b815260206004820152601960248201527f496e73756666696369656e7420555344432062616c616e63650000000000000060448201526064016101ef565b6001546040516323b872dd60e01b8152336004820152306024820152604481018390526001600160a01b03909116906323b872dd90606401602060405180830381600087803b15801561056f57600080fd5b505af1158015610583573d6000803e3d6000fd5b505050506040513d601f19601f820116820180604052508101906105a79190610a06565b5050565b600260009054906101000a90046001600160a01b03166001600160a01b031663337807866040518163ffffffff1660e01b815260040160206040518083038186803b1580156105f957600080fd5b505afa15801561060d573d6000803e3d6000fd5b505050506040513d601f19601f820116820180604052508101906106319190610a28565b6001600160a01b0316336001600160a01b03161461068a5760405162461bcd60e51b8152602060048201526016602482015275496e76616c69642063616c6c6572206164647265737360501b60448201526064016101ef565b600154600254604080516301332c8360e61b815290516001600160a01b039384169363a9059cbb931691634ccb20c0916004808301926020929190829003018186803b1580156106d957600080fd5b505afa1580156106ed573d6000803e3d6000fd5b505050506040513d601f19601f820116820180604052508101906107119190610a28565b6001546040516370a0823160e01b81523060048201526001600160a01b03909116906370a082319060240160206040518083038186803b15801561075457600080fd5b505afa158015610768573d6000803e3d6000fd5b505050506040513d601f19601f8201168201806040525081019061078c919061097f565b6040516001600160e01b031960e085901b1681526001600160a01b0390921660048301526024820152604401602060405180830381600087803b1580156107d257600080fd5b505af11580156107e6573d6000803e3d6000fd5b505050506040513d601f19601f8201168201806040525081019061080a9190610a06565b50565b610815610883565b6001600160a01b03811661087a5760405162461bcd60e51b815260206004820152602660248201527f4f776e61626c653a206e6577206f776e657220697320746865207a65726f206160448201526564647265737360d01b60648201526084016101ef565b61080a816108dd565b6000546001600160a01b031633146104525760405162461bcd60e51b815260206004820181905260248201527f4f776e61626c653a2063616c6c6572206973206e6f7420746865206f776e657260448201526064016101ef565b600080546001600160a01b038381166001600160a01b0319831681178455604051919092169283917f8be0079c531659141344cd1fd0a4f28419497f9722a3daafe3b4186f6b6457e09190a35050565b60006020828403121561093f57600080fd5b5035919050565b6001600160a01b038116811461080a57600080fd5b60006020828403121561096d57600080fd5b813561097881610946565b9392505050565b60006020828403121561099157600080fd5b5051919050565b634e487b7160e01b600052601160045260246000fd5b60008160001904831182151516156109c8576109c8610998565b500290565b6000826109ea57634e487b7160e01b600052601260045260246000fd5b500490565b600082821015610a0157610a01610998565b500390565b600060208284031215610a1857600080fd5b8151801515811461097857600080fd5b600060208284031215610a3a57600080fd5b81516109788161094656fea26469706673582212204f4f9246d20a06c9665ec91a96db9bb427b1e8c794eee58dd084ff34f45a3fe464736f6c63430008090033a2646970667358221220e8759e1ec687f7bf3696b511a1b2bd9bb5957a74d052dfbba771d42d620b46dd64736f6c63430008090033",
  "linkReferences": {},
  "deployedLinkReferences": {}
}