{
  "_format": "hh-sol-artifact-1",
  "contractName": "Vault",
  "sourceName": "contracts/vault.sol",
  "abi": [
    {
      "inputs": [
        {
          "internalType": "address",
          "name": "_USDC",
          "type": "address"
        },
        {
          "internalType": "address",
          "name": "_factory",
          "type": "address"
        }
      ],
      "stateMutability": "nonpayable",
      "type": "constructor"
    },
    {
      "anonymous": false,
      "inputs": [
        {
          "indexed": true,
          "internalType": "address",
          "name": "previousOwner",
          "type": "address"
        },
        {
          "indexed": true,
          "internalType": "address",
          "name": "newOwner",
          "type": "address"
        }
      ],
      "name": "OwnershipTransferred",
      "type": "event"
    },
    {
      "inputs": [],
      "name": "Factory",
      "outputs": [
        {
          "internalType": "contract IFactory",
          "name": "",
          "type": "address"
        }
      ],
      "stateMutability": "view",
      "type": "function"
    },
    {
      "inputs": [],
      "name": "USDC",
      "outputs": [
        {
          "internalType": "contract IERC20",
          "name": "",
          "type": "address"
        }
      ],
      "stateMutability": "view",
      "type": "function"
    },
    {
      "inputs": [],
      "name": "adminWithdraw",
      "outputs": [],
      "stateMutability": "nonpayable",
      "type": "function"
    },
    {
      "inputs": [
        {
          "internalType": "uint256",
          "name": "amount",
          "type": "uint256"
        }
      ],
      "name": "deposit",
      "outputs": [],
      "stateMutability": "nonpayable",
      "type": "function"
    },
    {
      "inputs": [],
      "name": "owner",
      "outputs": [
        {
          "internalType": "address",
          "name": "",
          "type": "address"
        }
      ],
      "stateMutability": "view",
      "type": "function"
    },
    {
      "inputs": [],
      "name": "renounceOwnership",
      "outputs": [],
      "stateMutability": "nonpayable",
      "type": "function"
    },
    {
      "inputs": [
        {
          "internalType": "address",
          "name": "newOwner",
          "type": "address"
        }
      ],
      "name": "transferOwnership",
      "outputs": [],
      "stateMutability": "nonpayable",
      "type": "function"
    },
    {
      "inputs": [],
      "name": "vaultBalance",
      "outputs": [
        {
          "internalType": "uint256",
          "name": "",
          "type": "uint256"
        }
      ],
      "stateMutability": "view",
      "type": "function"
    },
    {
      "inputs": [
        {
          "internalType": "uint256",
          "name": "amount",
          "type": "uint256"
        }
      ],
      "name": "withdraw",
      "outputs": [],
      "stateMutability": "nonpayable",
      "type": "function"
    }
  ],
  "bytecode": "0x608060405234801561001057600080fd5b50604051610b7b380380610b7b83398101604081905261002f916100d5565b61003833610069565b600180546001600160a01b039384166001600160a01b03199182161790915560028054929093169116179055610108565b600080546001600160a01b038381166001600160a01b0319831681178455604051919092169283917f8be0079c531659141344cd1fd0a4f28419497f9722a3daafe3b4186f6b6457e09190a35050565b80516001600160a01b03811681146100d057600080fd5b919050565b600080604083850312156100e857600080fd5b6100f1836100b9565b91506100ff602084016100b9565b90509250929050565b610a64806101176000396000f3fe608060405234801561001057600080fd5b50600436106100935760003560e01c80638da5cb5b116100665780638da5cb5b146100fb578063b6b55f251461010c578063c83dd2311461011f578063f18d20be14610132578063f2fde38b1461013a57600080fd5b80630bf6cc08146100985780632e1a7d4d146100b3578063715018a6146100c857806389a30271146100d0575b600080fd5b6100a061014d565b6040519081526020015b60405180910390f35b6100c66100c136600461091c565b6101bf565b005b6100c6610489565b6001546100e3906001600160a01b031681565b6040516001600160a01b0390911681526020016100aa565b6000546001600160a01b03166100e3565b6100c661011a36600461091c565b61049d565b6002546100e3906001600160a01b031681565b6100c66105d6565b6100c661014836600461094a565b6107fc565b6001546040516370a0823160e01b81523060048201526000916001600160a01b0316906370a0823190602401602060405180830381865afa158015610196573d6000803e3d6000fd5b505050506040513d601f19601f820116820180604052508101906101ba919061096e565b905090565b6101c7610872565b6001546040516370a0823160e01b815230600482015282916001600160a01b0316906370a0823190602401602060405180830381865afa15801561020f573d6000803e3d6000fd5b505050506040513d601f19601f82011682018060405250810190610233919061096e565b101561027d5760405162461bcd60e51b8152602060048201526014602482015273496e73756666696369656e742062616c616e636560601b60448201526064015b60405180910390fd5b60006064600260009054906101000a90046001600160a01b03166001600160a01b031663ced72f876040518163ffffffff1660e01b8152600401602060405180830381865afa1580156102d4573d6000803e3d6000fd5b505050506040513d601f19601f820116820180604052508101906102f8919061096e565b610302908461099d565b61030c91906109ba565b6001549091506001600160a01b031663a9059cbb3361032b84866109dc565b6040516001600160e01b031960e085901b1681526001600160a01b03909216600483015260248201526044016020604051808303816000875af1158015610376573d6000803e3d6000fd5b505050506040513d601f19601f8201168201806040525081019061039a91906109ef565b50600154600254604080516301332c8360e61b815290516001600160a01b039384169363a9059cbb931691634ccb20c09160048083019260209291908290030181865afa1580156103ef573d6000803e3d6000fd5b505050506040513d601f19601f820116820180604052508101906104139190610a11565b6040516001600160e01b031960e084901b1681526001600160a01b039091166004820152602481018490526044016020604051808303816000875af1158015610460573d6000803e3d6000fd5b505050506040513d601f19601f8201168201806040525081019061048491906109ef565b505050565b610491610872565b61049b60006108cc565b565b6001546040516370a0823160e01b815233600482015282916001600160a01b0316906370a0823190602401602060405180830381865afa1580156104e5573d6000803e3d6000fd5b505050506040513d601f19601f82011682018060405250810190610509919061096e565b10156105575760405162461bcd60e51b815260206004820152601960248201527f496e73756666696369656e7420555344432062616c616e6365000000000000006044820152606401610274565b6001546040516323b872dd60e01b8152336004820152306024820152604481018390526001600160a01b03909116906323b872dd906064016020604051808303816000875af11580156105ae573d6000803e3d6000fd5b505050506040513d601f19601f820116820180604052508101906105d291906109ef565b5050565b600260009054906101000a90046001600160a01b03166001600160a01b031663337807866040518163ffffffff1660e01b8152600401602060405180830381865afa158015610629573d6000803e3d6000fd5b505050506040513d601f19601f8201168201806040525081019061064d9190610a11565b6001600160a01b0316336001600160a01b0316146106a65760405162461bcd60e51b8152602060048201526016602482015275496e76616c69642063616c6c6572206164647265737360501b6044820152606401610274565b60015460025460408051635bd05a2360e01b815290516001600160a01b039384169363a9059cbb931691635bd05a239160048083019260209291908290030181865afa1580156106fa573d6000803e3d6000fd5b505050506040513d601f19601f8201168201806040525081019061071e9190610a11565b6001546040516370a0823160e01b81523060048201526001600160a01b03909116906370a0823190602401602060405180830381865afa158015610766573d6000803e3d6000fd5b505050506040513d601f19601f8201168201806040525081019061078a919061096e565b6040516001600160e01b031960e085901b1681526001600160a01b03909216600483015260248201526044016020604051808303816000875af11580156107d5573d6000803e3d6000fd5b505050506040513d601f19601f820116820180604052508101906107f991906109ef565b50565b610804610872565b6001600160a01b0381166108695760405162461bcd60e51b815260206004820152602660248201527f4f776e61626c653a206e6577206f776e657220697320746865207a65726f206160448201526564647265737360d01b6064820152608401610274565b6107f9816108cc565b6000546001600160a01b0316331461049b5760405162461bcd60e51b815260206004820181905260248201527f4f776e61626c653a2063616c6c6572206973206e6f7420746865206f776e65726044820152606401610274565b600080546001600160a01b038381166001600160a01b0319831681178455604051919092169283917f8be0079c531659141344cd1fd0a4f28419497f9722a3daafe3b4186f6b6457e09190a35050565b60006020828403121561092e57600080fd5b5035919050565b6001600160a01b03811681146107f957600080fd5b60006020828403121561095c57600080fd5b813561096781610935565b9392505050565b60006020828403121561098057600080fd5b5051919050565b634e487b7160e01b600052601160045260246000fd5b80820281158282048414176109b4576109b4610987565b92915050565b6000826109d757634e487b7160e01b600052601260045260246000fd5b500490565b818103818111156109b4576109b4610987565b600060208284031215610a0157600080fd5b8151801515811461096757600080fd5b600060208284031215610a2357600080fd5b81516109678161093556fea26469706673582212202e7757b8b48bd07ab892888bdc45b52c71711802e2b61bdf0b8235437d313c6f64736f6c63430008110033",
  "linkReferences": {},
  "deployedLinkReferences": {}
}